{
  "address": "0x23736df236bec6710683fc7200c55528d09c6901",
  "abi": [
    {
      "inputs": [
        {
          "internalType": "uint256",
          "name": "_vaultId",
          "type": "uint256"
        }
      ],
      "name": "getMakerVaultCollateralBalance",
      "outputs": [
        {
          "internalType": "uint256",
          "name": "",
          "type": "uint256"
        }
      ],
      "stateMutability": "view",
      "type": "function"
    },
    {
      "inputs": [
        {
          "internalType": "uint256",
          "name": "_vaultId",
          "type": "uint256"
        }
      ],
      "name": "getMakerVaultDebt",
      "outputs": [
        {
          "internalType": "uint256",
          "name": "",
          "type": "uint256"
        }
      ],
      "stateMutability": "view",
      "type": "function"
    }
  ],
  "transactionHash": "0xe0a65f2b96c346bbb6ac9210739d32e4d076f6cf5025dbed578153d004baefbd",
  "args": [],
  "solcInputHash": "89383a6e8e4256890d851f32690baa57",
  "bytecode": "0x608060405234801561001057600080fd5b50610532806100206000396000f3fe608060405234801561001057600080fd5b50600436106100365760003560e01c8063bbc76fd61461003b578063ec91325d1461006a575b600080fd5b6100586004803603602081101561005157600080fd5b5035610087565b60408051918252519081900360200190f35b6100586004803603602081101561008057600080fd5b5035610098565b6000610092826100a3565b92915050565b6000610092826101c4565b600080735ef30b9986345249bc32d8928b7ee64de9435e3990506000816001600160a01b03166336569e776040518163ffffffff1660e01b815260040160206040518083038186803b1580156100f857600080fd5b505afa15801561010c573d6000803e3d6000fd5b505050506040513d602081101561012257600080fd5b5051905060008061013384876103a4565b915091506000836001600160a01b0316632424be5c84846040518363ffffffff1660e01b815260040180838152602001826001600160a01b0316815260200192505050604080518083038186803b15801561018d57600080fd5b505afa1580156101a1573d6000803e3d6000fd5b505050506040513d60408110156101b757600080fd5b5051979650505050505050565b6000735ef30b9986345249bc32d8928b7ee64de9435e3981806101e783866103a4565b915091506000836001600160a01b03166336569e776040518163ffffffff1660e01b815260040160206040518083038186803b15801561022657600080fd5b505afa15801561023a573d6000803e3d6000fd5b505050506040513d602081101561025057600080fd5b505160408051636cb1c69b60e11b81526004810186905290519192506000916001600160a01b0384169163d9638d369160248083019260a0929190829003018186803b15801561029f57600080fd5b505afa1580156102b3573d6000803e3d6000fd5b505050506040513d60a08110156102c957600080fd5b5060200151604080516309092f9760e21b8152600481018790526001600160a01b038681166024830152825193945060009390861692632424be5c9260448082019391829003018186803b15801561032057600080fd5b505afa158015610334573d6000803e3d6000fd5b505050506040513d604081101561034a57600080fd5b50602001519050600061035d8284610499565b90506b033b2e3c9fd0803ce80000008104975080610387896b033b2e3c9fd0803ce8000000610499565b106103925787610397565b876001015b9998505050505050505050565b600080836001600160a01b0316632c2cb9fd846040518263ffffffff1660e01b81526004018082815260200191505060206040518083038186803b1580156103eb57600080fd5b505afa1580156103ff573d6000803e3d6000fd5b505050506040513d602081101561041557600080fd5b505160408051632726b07360e01b81526004810186905290519193506001600160a01b03861691632726b07391602480820192602092909190829003018186803b15801561046257600080fd5b505afa158015610476573d6000803e3d6000fd5b505050506040513d602081101561048c57600080fd5b5051919491935090915050565b60008115806104b4575050808202828282816104b157fe5b04145b610092576040805162461bcd60e51b815260206004820152601460248201527364732d6d6174682d6d756c2d6f766572666c6f7760601b604482015290519081900360640190fdfea26469706673582212209e3ad68cca2f6d8b552c8d7beb7b4bb20f6b30b70c449cbeecd749d8d946c43d64736f6c63430007040033",
  "devdoc": {
    "kind": "dev",
    "methods": {
      "getMakerVaultCollateralBalance(uint256)": {
        "details": "Return Collateral in wad of the vault associated to the vaultId."
      },
      "getMakerVaultDebt(uint256)": {
        "details": "Return Debt in wad of the vault associated to the vaultId."
      }
    },
    "version": 1
  },
  "userdoc": {
    "kind": "user",
    "methods": {},
    "version": 1
  },
  "storageLayout": {
    "storage": [],
    "types": null
  }
}